S014000054696D6553796E634D6265642E737265636C
S113000000800020E53F0000E13F0000E13F0000E8
S113001000000000000000000000000000000000DC
S1130020000000000000000000000000D9110000E2
S113003000000000000000004512000089120000CA
S1130040E13F0000E13F0000E13F000055190000DE
S1130050A5400000E13F0000E13F00000000000077
S1130060E13F0000E13F0000E13F0000E13F00000C
S1130070E13F00000000000000000000E13F00003C
S1130080E13F0000E13F00009D620000A962000022
S1130090B562000000000000000000000000000045
S11300A0000000000000000000000000E13F00002C
S11300B00000000010B5064C2378002B07D1054B37
S11300C0002B02D0044800E000BF0123237010BDC0
S11300D074010020000000005CFD000008B5084B1E
S11300E0002B03D00748084900E000BF0748036815
S11300F0002B00D108BD064B002BFBD09847F9E735
S1130100000000005CFD0000780100205CFD0000A0
S113011000000000F0B5CDB0002804D00023002278
S1130120002905D11BE00122114B1A6000241BE0B9
S1130130104E1027C45C132C0BD8A5007559AF467C
S113014001ADAD18EF54013201ADAD184034EC549B
S113015002E001ADAD18EC5401338B42EAD15418DE
S113016001A9221C044B9847201C4DB0F0BDC04689
S11301709001002080EA0000A79E000070B5041CD6
S1130180151C002804D10122124B1A60002020E023
S1130190002918D103220F4B1A6002230370002593
S11301A06E1C201C311C00220B4B9847051C601C44
S11301B0311C0A4B9847231803229A7025542D0AA0
S11301C05D70033005E0022303700130044B98474F
S11301D0E6E770BD90010020310200001501000027
S11301E0A79E000010B5000283B208220020094C2B
S11301F0011C594009B2002903DA4000604080B272
S113020001E0400080B25B009BB2013A92B2002A46
S1130210EED110BD2110000010B5041C001248409E
S1130220024B98472402604080B210BDE5010000F3
S113023070B5051C101C002907D02C1C6D18034E2A
S11302402178B0470134AC42FAD170BD19020000E4
S113025008B50F4B98470F4B1B68C01A0E4B9842BA
S113026013D90B4B98470B4B18600C4B1B78012B85
S113027008D1BFF34F8F0A4A0A4BDA60BFF34F8F9E
S1130280C046FDE70122054B1A70074B984708BD8D
S1130290490C00009401002050C300009801002084
S11302A00400FA0500ED00E0ED03000010B582B093
S11302B0384A916910230B439361374B1B78DB0950
S11302C01022002B62D1C3780732002B5ED0017953
S11302D099425BD84179994258D82F4A1378022120
S11302E08B431370D3795BB2002BFBDB4378002282
S11302F0002B4BD0041C01A983780B700320274BDF
S113030098470320264B98472378002B02D00320DC
S1130310244B9847E378013B2279002A09D01E49EF
S11303200878042202430A702279013A1201134325
S113033004E019490A78042082430A701649CA79EC
S113034052B2002AFBDBDBB2134A53706379002BF1
S113035008D0111CCA7952B2002AFBDB013BDBB284
S11303600D4A93702378002B05D00B4A1178802313
S11303700B43137004E0084A117802230B431370F3
S1130380054AD3795BB2002BFBDB0022101C02B0C0
S113039010BDC0460004004000100040A944000005
S11303A02D440000C1440000A522044B1A721A1CFB
S11303B0D3795BB2002BFBDB7047C04600100040D2
S11303C000B583B000236A461370012269464A705F
S11303D00B32CA700B714B7102338B706846024B3F
S11303E0984703B000BDC046AD02000008B5014BFC
S11303F0984708BDA903000010B5041C036C002B2A
S113040008D10368002B26D14068154B9847002378
S1130410636020E0002A0ED180681A1C114B9847B3
S1130420A368226C94466344A3606268934212D327
S11304302368A3600FE0C0681A1C0A4B9847236C1A
S11304405B42E268D218E26021688A4203D26268A1
S113045094466344E360A36B0133A36310BDC046B9
S113046051110000A79E000038B50468002C0CD080
S1130470026CC3689B18C3604568AB4200D3C46078
S11304800B1CC168181C014B984738BDA79E00007F
S1130490F8B5041C214B9847A36C002B16DD636A46
S11304A0002B04D112E0636A002B04D10EE0251C5A
S11304B024351B4F1B4E281CB847002800D0B047DA
S11304C0A36C013BA364A36C002BECDC01235B4213
S11304D0A364154B9847114B9847636C002B16DDAA
S11304E02369002B04D112E02369002B04D10EE010
S11304F0251C10350A4F0B4E281CB847002800D085
S1130500B047636C013B6364636C002BECDC012338
S11305105B426364044B9847F8BDC046191200005F
S1130520B10F0000BD1000003112000038B50028E2
S113053001D172B6FEE70D1C041C154B98472268C6
S1130540216CE36B4B43D01860600020A063A26071
S11305505B1AD318E36001235B426364A364002D38
S11305600BD12369002B0FD0201C1030094B984766
S1130570012809D1084B984706E0201C1030074D8C
S1130580A847201C2430A847054B9847012038BDB4
S113059019120000B10F000001120000F50800005C
S11305A03112000070B5002813D00E1C051C4C201D
S11305B00D4B9847041E0CD0301C684301300A4B85
S11305C098472060002806D1201C084B984700E07B
S11305D0FEE772B6FCE7E5632664201C0121044BA8
S11305E09847201C70BDC0461913000081130000F9
S11305F02D050000F0B5574680B486B0039200285C
S113060001D172B6FEE70027002905D1026C002A49
S113061001D072B6FEE7002702930191041C334D0A
S1130620A847A36BE26B934213D2201C0199029A50
S11306302F4B9847636A002B07D0201C24302D4B86
S11306409847012801D12C4B98472C4B98470120FF
S113065048E0039B002B03D1284B9847002041E03E
S1130660002F03D104A8264B98470137234B984702
S1130670244B98471D4B9847636C013301D10023E9
S11306806364A36C013301D10023A3641B4B98471B
S113069004A803A91C4B984700281DD1134B984765
S11306A0A36B9A46E66B154B9847B2450ED1201CB6
S11306B010300399154B9847201C154B9847154B40
S11306C098470028ACD10C4B9847A9E7201C104B45
S11306D09847104B9847A3E7201C0D4B98470D4BA8
S11306E09847002006B004BC9246F0BD19120000E1
S11306F0F9030000B10F00000112000031120000E4
S11307002D100000390C00004D100000710F000086
S113071091040000850D000070B5002801D172B667
S1130720FEE7002904D1046C002C01D072B6FEE768
S113073072B6846B0025C66BB4421CD2161C041C12
S11307401A1C0E4B9847A36C01330ED1636A013512
S1130750002B10D0201C2430094B984700280AD0C5
S1130760002E07D00123336005E0A36C0133A3649A
S1130770012500E0012562B6281C70BDF9030000C4
S1130780B10F0000F0B54F4680B484B00192002848
S113079001D172B6FEE70027002905D1026C002AB8
S11307A001D072B6FEE700271D1C0091041C444EC4
S11307B0B047A36B002B2BD0E768201C0099414B5A
S11307C09847002D14D1A36B013BA3632368002B2E
S11307D002D13D4B984760602369002B14D0201C44
S11307E010303A4B984701280ED1394B98470BE00B
S11307F0E760636A002B07D0201C2430334B9847F2
S1130800002801D0324B9847324B9847012052E0E0
S1130810019B002B03D12F4B984700204BE0002F66
S113082003D102A82C4B984701372A4B98472B4BEE
S11308309847234B9847636C013301D100236364C9
S1130840A36C013301D10023A364224B984702A86F
S113085001A9234B9847002827D1194B9847A36B2C
S113086099461C4B98474B46002B18D12368002B04
S113087006D1134B984760681A4B9847154B984715
S1130880201C24300199184B9847201C174B98477B
S1130890174B984700288BD10D4B984788E7201CAD
S11308A0124B9847124B984782E7201C0F4B9847EE
S11308B00F4B9847002004B004BC9146F0BDC046DD
S11308C01912000069040000C9100000B10F0000F3
S11308D001120000311200002D100000390C00003C
S11308E04D100000D5100000710F000091040000AD
S11308F0850D0000031C08334360012252428260CC
S1130900C3600361002303607047C0460023036192
S11309107047C04643685A684A6042688A605A68A9
S11309209160596041600861036801330360704756
S113093010B50C68631C01D103690AE0031C083379
S1130940C2681268944204D35B685A68126894427D
S1130950FAD25A684A6091608B60596008610368F2
S11309600133036010BDC046436882689A6083689F
S113097042685A6003695A68824201D182685A60A7
S1130980002202611A68013A1A6018687047C0466A
S113099010B5041E0E4B1B6858600E4B1B689C421E
S11309A007D20D4B18680A4B196804310B4B984752
S11309B00CE00B4B1868064B19680431074B984739
S11309C0084B1B689C4201D2064B1C6010BDC046FC
S11309D03C0200205402002058020020310900008B
S11309E0A0010020B400002010B5014CA047FDE791
S11309F051020000F0B54F464646C0B485B00C9C89
S1130A00002801D172B6FEE7052C01D972B6FEE7C3
S1130A100393161C0F1C02904020594B9847051E47
S1130A2000D1A5E00E9B002B00D09DE0B000544BFC
S1130A3098472863002803D1281C524B984797E015
S1130A40B200A521504B9847504BF3189B002A6BDA
S1130A5094466344072293439846281C3430391C37
S1130A6001324B4B984700223B23EA54271E052FA3
S1130A7000D90527EF62EF632B1D0193181C454E27
S1130A80B047281C1830B0472D610623DB1BAB612F
S1130A906D6240460299039A3F4B9847286043078A
S1130AA001D072B6FEE70D9B002B00D01D603B4BBE
S1130AB098473B4A1368013313603A4B1B68002B79
S1130AC01ED1384B1D601368012B24D1364E773369
S1130AD09946B144354F301CB84714364E45FAD1C7
S1130AE0334B9946181C314EB047324F381CB0472F
S1130AF03148B047314B4A461A60314B1F600AE017
S1130B00304B1B68002B06D1264B1B68DB6A9C42CA
S1130B1001D3244B1D60EB6A2B4A1268934201D91E
S1130B20294A136029490A6801320A60284A12686E
S1130B30934201D9264A13609800C3189B001A48AF
S1130B40C0180199234B9847234B98471D4B1B68AA
S1130B500120002B0ED0134B1B68DB6A9C4209D981
S1130B601E4B9847012005E00E9B0363181C67E7A2
S1130B700120404205B00CBC90469946F0BDC046E9
S1130B801913000081130000B99E0000FFFFFF3F0E
S1130B90E3B500000D090000C111000019120000A6
S1130BA07C0200203C020020C0010020F508000067
S1130BB064020020AC01002040020020A0010020BB
S1130BC058020020A40100208002002060020020BE
S1130BD05C0200201509000031120000011200001F
S1130BE010B584B0002300930193029303930C483F
S1130BF00C49962252000C4CA047012809D172B628
S1130C0001220A4B1A600022094B1A60094B9847CB
S1130C1003E0002801D172B6FEE704B010BDC0465F
S1130C20E9090000D0EA0000F5090000A401002051
S1130C3054020020DD120000024A136801331360DD
S1130C407047C0463802002010B5044B9847044B47
S1130C501C68044B9847201C10BDC04619120000A4
S1130C605402002031120000F8B53B4B1B68002BE6
S1130C706DD13A4B1A6801321A601B68002B20D1DF
S1130C80374B1B681B68002B01D072B6FEE7344B50
S1130C901968344A10681860116033490A680132CF
S1130CA00A601B681B68002B04D1012252422F4B9F
S1130CB01A6006E02A4B1B68DB68DB685A682B4B1A
S1130CC01A60264B1A68294B1B689A4243D3244B5B
S1130CD01B681B68002B0BD0214B1B68DB68DD688D
S1130CE06B681E4A1268934210D8214F214E10E0BF
S1130CF0012252421D4B1A602DE0194B1B68DB6820
S1130D00DD686B68154A1268934202D9174A13606A
S1130D1021E02C1D201CB847AB6A002B03D0281CF3
S1130D201830134B9847EB6A3268934201D9114A41
S1130D3013609800C3189B000F48C018211C0F4B68
S1130D409847074B1B681B68002BD6D1D0E70C4A89
S1130D50136801331360F8BD3802002054020020E8
S1130D60A001002058020020A8010020B4000020A7
S1130D70690900005C020020C00100201509000080
S1130D809C010020F8B52F4B1B68002B01D172B6D3
S1130D90FEE72D4B98472B4B1A68013A1A601B68E3
S1130DA00024002B49D1294B1B68002B22D144E09D
S1130DB0274BDB68DF68381C1830264B98473D1DED
S1130DC0281C244B9847FB6A234A1268934201D992
S1130DD0214A13609800C3189B002048C018291C9E
S1130DE01F4B98471F4B1B68FA6ADB6A9A4202D36F
S1130DF0012400E0164E3368002BD9D11A4B1B682E
S1130E00002B0DD0184B1B68002B10D0174D164C1F
S1130E10A8472368013B23602368002BF8D106E030
S1130E20012C04D0124B1B680024012B05D1002295
S1130E300F4B1A600F4B984701240F4B9847201C07
S1130E40F8BDC04638020020191200007C020020C0
S1130E5040020020690900005C020020C00100205B
S1130E60150900003C0200209C010020690C0000D0
S1130E7078020020011200003112000010B5041E97
S1130E8010D00A4B98470A4B1B68E418094B1868A2
S1130E900430094B9847201C084B9847084B984747
S1130EA0002801D1074B984710BDC046390C0000FB
S1130EB0540200203C02002069090000910900004E
S1130EC0850D00000112000010B5244B1B68002B97
S1130ED010D1234B1B689A00D3189B00214A9B58BE
S1130EE0002B1AD11E4B1B68002B0AD01C4A1D4C28
S1130EF0101C08E001221C4B1A602DE00368002B33
S1130F0001D172B6FEE71368013B136013689900C0
S1130F10CB189B001B59002BF0D0114B1B68114CB4
S1130F209A00D11889006118486840684860D2184E
S1130F3092000832A218904205D141689A00D21852
S1130F409200A21851609A00D3189B00054AD31846
S1130F505B68DA68054B1A6010BDC0463802002091
S1130F605C020020C0010020780200203C02002026
S1130F7038B5002801D172B6FEE70C1C074D29686C
S1130F801831074B984728680430064B9847064B9E
S1130F9018682018054B984738BDC0463C0200200D
S1130FA03109000069090000540200209109000081
S1130FB038B5C368DD68002D01D172B6FEE72C1C7C
S1130FC01834201C124B9847124B1B68002B13D16A
S1130FD02C1D201C0E4B9847EB6A0F4A1268934253
S1130FE001D90D4A13609800C3189B000B48C01820
S1130FF0211C0B4B984703E00A48211C084B9847D7
S1131000094B1B68EA6ADB6A00209A42404138BDFA
S113101069090000380200205C020020C0010020A1
S113102015090000400200203C020020002801D1E4
S113103072B6FEE7034B1B680360034B1B684360F7
S11310407047C046A80100205402002070B5002853
S113105001D172B6FEE7002901D172B6FEE70D1C7C
S1131060041C114B9847114B1B6822689A4205D007
S11310700F4B1B68012662689A4210D90C4B196801
S113108060682B68091A0126994208D2084A126836
S1131090121A9B1A2B60201C064B98470026064BFD
S11310A09847301C70BDC04619120000A8010020EA
S11310B0540200202D100000311200000122014BC7
S11310C01A60704778020020014B18687047C046C8
S11310D03C02002038B500282FD0C36A174A126892
S11310E0D26A934229D2154A1268D16A0622521A48
S11310F082619A00D3189B00114AD31842699A421C
S113110017D1051C041D201C0E4B98470B4B1B6864
S1131110DB6AEB620C4A1268934201D90A4A1360F3
S11311209800C01883000648C018211C074B984734
S113113003E0024B1B68DB6AC36238BD3C0200203B
S1131140C0010020690900005C02002015090000AC
S113115038B500281BD0C36AC26B934217D0041C55
S1131160051D281C0A4B9847E36BE3620622D21A3A
S1131170A261084A1268934201D9064A1360980092
S1131180C01883000448C018291C044B984738BD74
S1131190690900005C020020C0010020150900005C
S11311A0064A13681868203080F30988022080F307
S11311B014883FBCAE4662B600BDC0463C02002067
S11311C010B5031F802464041C60043B1960183BA1
S11311D01A60403810BDC046084B196808681030C2
S11311E0F0C8A046A946B246BB4680F30988203819
S11311F0F0C871460D2001430847C0463C02002058
S113120080225205034B1A60BFF34F8FBFF36F8FD9
S11312107047C04604ED00E072B6044A1368013317
S11312201360BFF34F8FBFF36F8F7047B800002078
S1131230034A1368013B1360002B00D162B6704768
S1131240B8000020EFF309800E4B1A6820381060B4
S1131250F0C044464D4656465F46F0C008B572B6E7
S1131260FFF732FE62B60CBC116808681030F0C893
S1131270A046A946B246BB4680F309882038F0C888
S11312801847C0463C02002008B580225205034B93
S11312901A6072B6024B984762B608BD04ED00E0CE
S11312A0690C000008B50022074B1A600020074BA8
S11312B09847FA218900064B98470138054B186076
S11312C00722054B1A6008BD18E000E0B543000092
S11312D08566000014E000E010E000E008B50A4B69
S11312E01A68FF2109040A431A601A68FF210906D3
S11312F00A431A60054B98470022054B1A60054BB8
S11313009847002008BDC04620ED00E0A51200006B
S1131310B8000020A111000038B5041C430702D016
S113132007239C430834104B9847104B1B68002B31
S113133005D107220E4B083393430C4A13600D4B1F
S11313401B68E4180C4A944207D8A34207D2074A00
S11313501568ED18074B1C6002E0002500E000252D
S1131360064B9847281C38BD390C0000203D00204E
S113137088020020840200208F3A0000850D0000BE
S1131380002801D072B6FEE77047C04682B084B030
S11313900190029103920593019A059B01209A42C0
S11313A009D8019A059B00209A4204D30298069B0F
S11313B083428041404204B002B0704784B001913E
S11313C0029203930023036043600133037205997F
S11313D0019A049BD21A0260029B5B1A0BD5026825
S11313E0002A09D00268013A0260FA22D201944626
S11313F06344436000E0436004B0704770B58EB04E
S1131400041C05A8059106920793002323606360DA
S113141001332372037A12AA127ADBB2934220D0E8
S1131420037A002B0DD0012212AB1A726B4612AA5A
S113143023CA23C3201C0599069A079B2E4DA8474F
S113144056E005AB01221A726A4612A961C961C24B
S1131450201C0599069A079B274DA8470023237251
S113146046E005AB1B7A002B2BD008AA05AB23CB97
S113147023C20BAB12AA23CA23C3089A0B9B9A421A
S113148007D8089A0B9B9A420ED3099A0C9B9A424E
S11314900AD96B4612AA23CA23C3201C0599069AAB
S11314A0079B164DA84723E005AB6A4623CB23C20E
S11314B0201C1299139A149B104DA84700232372E1
S11314C016E0012212AB1A7205AB1A726A4612A90F
S11314D061C961C2201C0599069A079BFFF78EFF1C
S11314E0237A002B02D00023237201E0012323720C
S11314F0201C0EB070BDC04601150000BD130000D5
S1131500F0B5474680B49AB0041C05A8059106922C
S1131510079300232360636001332372037A002B53
S113152013D020AB1B7A002B14D10EE020AB1B7A16
S1131530002B46D137E020AB1B7A002B46D152E07A
S113154020AB1B7A002B53D081E005AB1B7A002B18
S1131550ECD136E008AA05AB111C61CB61C10BAB21
S1131560191C20A8E0C8E0C114AD00211491159104
S1131570013129720999089A0B98821814920C9EC9
S11315807618149F301CFA21C9013A4B9847C719A1
S11315901497301CFA21C901374B98476960231C02
S11315A007CD07C353E0012220AB1A726B4620AA71
S11315B023CA23C3201C0599069A079B2F4DA847CD
S11315C045E005AB1B7A002B0DD1B4E705AB012236
S11315D01A726A4623CB23C2201C2099219A229B8B
S11315E0264DA84733E005AB1B7A002B2FD1A7E784
S11315F005AB0121197220AA11720EAA101CE0CBAE
S1131600E0C011AB9C46181C20ADC8CDC8C017ADB6
S113161000271797189729720F990E9A1198821814
S1131620179263465E687618179B9846301CFA2119
S1131630C901104B984740441790301CFA21C90146
S11316400D4B98476960231C07CD07C32772606858
S11316502568FA21C901074B984745192560606838
S1131660FA21C901044B98476160201C1AB004BCDC
S11316709046F0BD8566000091670000FD130000F0
S1131680F0B5474680B4041C72B6BFF35F8F0022E6
S1131690194B1A70194A138802218B431380937AC9
S11316A0DB09FCD1154D2F69154B1A6822605B6864
S11316B063600123984623726368DB196360606882
S11316C02668FA21C9010F4B98478619266060687D
S11316D0FA21C9010C4B984761602A8802231343FD
S11316E02B80054B42461A70BFF35F8F62B6381CDD
S11316F004BC9046F0BDC046D00000200014004059
S1131700BC0000208566000091670000F0B54746E4
S113171080B484B0019002910392164A1388022186
S11317208B431380937ADB09FCD10298124F13493F
S1131730B847104D2961019B114C23600298114B4D
S113174098460E4998470D4B584360606068266878
S1131750FA21C901C047861926606068FA21C901C7
S1131760B84761602A88022313432B8004B004BC69
S11317709046F0BD0014004091670000102700005F
S1131780BC00002085660000F0B58DB05F4A138868
S113179002218B43138072B6BFF35F8F00225C4B30
S11317A01A705C4B1A785C4B1A705C4B5A685C4933
S11317B08C4662445A605A685A4B9A4203D80022B3
S11317C0544B1A7002E00122524B1A70514B1B7891
S11317D0DBB2514A12789A4217D04E4B1C78E4B2CD
S11317E0514B1B785BB2013304D150485049282235
S11317F0504B9847002C04D04B4B1A695B6813601C
S113180003E0494BDA685B681360444C6068256800
S1131810FA21C901484B9847451925606068FA21A7
S1131820C901464B98476160454B1B68002B60D04B
S1131830444B1B68002B3CD1434B1A68414B1A6044
S11318403F4C2068C317C0185840FA21C9013A4BCD
S1131850984709902068C317C0185840FA21C90155
S1131860364B98470A912368002B03DA002209AB10
S11318701A7202E0012209AB1A72284E04AC09ADB7
S11318806B462A1C83CA83C3201C31687268B36800
S11318902E4FB847231C07CB07C62D4E6B4607CDEA
S11318A007C3201C31687268B368B8470ECC0EC6F3
S11318B003E0244A1368013B1360254C60682568E3
S11318C01D4FFA21C901B8474519256060681B4EB0
S11318D0FA21C901B0476160104C60682568FA219B
S11318E0C901B847451925606068FA21C901B047A4
S11318F061600122064B1A70BFF35F8F62B6034A20
S1131900118802230B4313800DB0F0BD0014004076
S1131910D00000202C3D0020243D0020BC000020ED
S1131920102700007F3E0000343D0020D8EA00006C
S1131930F0EA0000894F000085660000916700000E
S1131940503D0020303D0020283D002001150000BE
S1131950F841002008B5064B197A01220A431A728D
S11319601A7A802149420A431A72024B984708BDE9
S1131970001400408917000008B521482149224B72
S11319809847224B224A5A60812252009A60214A87
S11319905A80214B1988214A0A401A801A880C213E
S11319A08A431A801A880B398A431A80198880223C
S11319B00A431A80D979802040420143D971D979E8
S11319C001221143D971197A0A431A721A7A02430D
S11319D01A7200221A61124A12689A611988022244
S11319E00A431A800F4AC021890053581B021B0A5C
S11319F0C0200006034353500823136008BDC046AB
S1131A00944500203CEB0000614F0000000C0040B6
S1131A10020401000442000000140040FFF0FFFF34
S1131A20C800002000E100E008B507480023037067
S1131A304360037243728372C360036143618361D1
S1131A401321024B984708BD343D0020AD4F0000E0
S1131A50F0B54F464646C0B485B0041C354B984794
S1131A60354B18600C2323425FD03448344B9847DD
S1131A70C3B29846002B55D00024324B9946324EBF
S1131A802E48C84781B23222B35CDBB25F1CFFB27E
S1131A90B754C0B2F054B35CDBB2312B03D900208D
S1131AA03223294AD054552920D19423274AD05887
S1131AB0002804D0002100220023254FB847234DDD
S1131AC001228423EA542B6801AF01936B680293CB
S1131AD02B7ADBB23B72381C1E4B9847019B2B6060
S1131AE07B686B603B7ADBB22B7217E08423174A66
S1131AF0D35C002B12D0131C002084229854013094
S1131B0001329854092909D81F68480042189200E4
S1131B10D7505A684118890059184A600134E4B210
S1131B20A045ADD105480C4B984705B00CBC904678
S1131B309946F0BD490C000094010020883D002026
S1131B409D20000069200000543D0020CC4200206C
S1131B50190700008116000059200000044A3323AD
S1131B60D35C3221505C181A431E9841C0B27047AE
S1131B70543D0020034A3223D35CDBB23321535457
S1131B807047C046543D0020F8B5071C0E1C0B4896
S1131B900B4B9847002E0CD03C1C751EEDB2013542
S1131BA07D19064E074F2178301CB8470134AC42EA
S1131BB0F9D10248044B9847F8BDC046883D00203F
S1131BC0BD200000E12100001521000010B50E4CDD
S1131BD0A047A0470023002813D00C4B33215A5CA4
S1131BE0D2B2985CC0B25A5C0132D2B25A545A5C36
S1131BF0D2B2031C312A04D900213323034AD1541D
S1131C00031C181C10BDC0465D1B0000543D002081
S1131C1010B50A480A490B4B98470B4B0022332155
S1131C205A5401395A54094C201C0949094B984704
S1131C30201C0C21084B984710BDC0469445002039
S1131C4054EB0000614F0000543D0020883D00200B
S1131C50511A0000512000004120000030B585B029
S1131C600A4C3F230093103B01931B3B02930C331C
S1131C700393201C3E2153223233054DA847201CD8
S1131C800449054A054B984705B030BD883D0020FE
S1131C907D1E0000791E0000B00000206D6600006B
S1131CA070B572B6BFF35F8F174C00232370174BC8
S1131CB09847174B9847174B9847174B9847174B1C
S1131CC09847174B984701232370BFF35F8F62B681
S1131CD0144D281C1449154CA047281C14490122F2
S1131CE0A047281C1349A047281C1349A047281CB7
S1131CF01249A047124B98470A4E124D0B4C301C08
S1131D00291CA047FBE7C046D0000020913B0000FF
S1131D1079190000512D0000111C0000C1030000BE
S1131D205D2C00009445002068EB0000614F00002A
S1131D30B8EB0000CCEB0000DCEB0000FCEB000097
S1131D40E10B00004CEC0000F0B557464E4645460A
S1131D50E0B482B00AAC002565570BAC2478002CA3
S1131D6002D07C30FF306BE0384C0355384C045DB6
S1131D70002C5BD1072917D8002954D0FC23FF334A
S1131D80C35C5C1C7F252C407E35FF35455DA54238
S1131D9049D0171C0139C9B25218FC21FF317F25E3
S1131DA0AC46FE26760035E08E1E092E3BDDFC2374
S1131DB0FF33C45C631C7F210B407E31FF31415CE7
S1131DC0092599420AD12EE047463B400133674634
S1131DD03B405746C75D9F4209D124E0FC21FF31B7
S1131DE0FF27B846803FBC467E37FF37BA46575D6B
S1131DF004197934FF34E770DCB244540135EDB290
S1131E00B542E1DB0FE0013465462C400137855DC6
S1131E10A54208D03D78C3187933FF33DD70E3B2AF
S1131E2043549742EFD17C30FF3009E00024009402
S1131E30A124A4000459081C111C1A1C2B1CA04723
S1131E4002B01CBC90469946A246F0BD7D0200003B
S1131E507F02000010B5041CA0239B00C35C002B70
S1131E6004D0A2239B00C358081C98470022014BAE
S1131E70E25410BD820200007047C046F0B54746E8
S1131E8080B486B0051C0CA8002686570DA8002730
S1131E90C7570EA8007840B28046281C143001248D
S1131EA0644200942C4CA0470024A823EC54281C22
S1131EB0A8304460047244728472C4600461446152
S1131EC08461311C254EB047C423EC54281CC43013
S1131ED04460047244728472C46004614461846125
S1131EE0391CB047E023EC54281CE03044600472F1
S1131EF044728472C4600461446184614146B047A1
S1131F00A2239B00EC50043BEC502C700833EC549F
S1131F10134BEC54134BEC54134BEC54013BEC5467
S1131F20124BEC54124BEC54124BEC54023BEC5459
S1131F30FC23FF33EC540133EC54281C0E490022DB
S1131F400E4B9847281C0E4900220E4B9847281C1C
S1131F5006B004BC9046F0BDA14B0000AD4F00009C
S1131F608D0200008E020000810200007F0200004A
S1131F707D0200007E020000491D0000CD22000009
S1131F80551E0000E522000070B5061C0D1C141C33
S1131F90011CFC317F22204B9847002C0CD0221CC2
S1131FA0331CFE33FF331D49701811781970013248
S1131FB001338342F9D11BE04122FE23FF33F25463
S1131FC047320133F2540023154AB354CD21013270
S1131FD0B1542239134AB154033AFF3A12497254A4
S1131FE01249725401210632FF32B154104AB354DB
S1131FF0EAB2301C00210F4B98470F4BF35C002BC7
S113200004D0301C04210D4B984703E0301C0221FE
S11320100A4B984770BDC046012400000602000028
S1132020FF010000010200000202000003020000A0
S113203005020000412700008D020000F124000089
S113204008B50022014B984708BDC046891F00000F
S1132050A5239B00C1507047FE235B00C25CFC2398
S1132060FF33C2547047C046FE235B00C35CFC22AE
S1132070FF32825C9A420BD0C2187932FF32D27896
S113208001337F210B407E31FF31435490B200E095
S1132090014800B27047C046FFFF0000FC23FF3335
S11320A0C35C8033FE225200805C1B1AD817420E98
S11320B09B187F200340981A40B270470122074BB7
S11320C0C254833BFF3B064A8354064A8354FB3A7B
S11320D0FF3A7E33FF33C2547047C046810200008A
S11320E0020200000302000010B582B06B46D980E2
S11320F0074C6B46991D035D002B06D00B889BB2E1
S11321005A1E92B20A80002BF5D102B010BDC0460F
S11321108202000038B5041C0022284BC2549F22BE
S11321209200835C023383542549264B984701224D
S1132130254BE2540A33E35C002B04D0201C03211A
S1132140224B984703E0201C0121204B9847204B49
S1132150E35CFF2B06D1FE22FF32A35C20218B43DC
S1132160A3540CE01B4BE35C002B04D14122FE235F
S1132170FF33E25403E06122FE23FF33E2549F2342
S11321809B00E15C201C221CFE32FF320023124D16
S1132190A847201C0A490B4B9847104BE35C002BC3
S11321A004D0201C0421094B984703E0201C022181
S11321B0064B98470022044BE25438BD81020000CC
S11321C0FFFF0000E920000082020000F12400006B
S11321D0020200008E020000452800008D0200006B
S11321E038B5041C2D4BC35C002B20D09F239B00CF
S11321F0C35C7C2B51D8C218F932FF3251710133C0
S1132200DBB29F22920083547C2B46D9244B9847FF
S11322100122224BE254833BFF3B224AA354224A2D
S1132220A354FB3AFF3A7E33FF33E25435E01F4BAD
S1132230C15400231E4A8354013283541D491E4B4A
S1132240984701221D4BE2540A33E35C002B04D06F
S1132250201C03211A4B984703E0201C0121184B32
S11322609847201C0A21221CFE32FF320023154D00
S1132270A847201C0F49104B9847134BE35C002BD5
S113228004D0201C04210E4B984703E0201C02219B
S11322900B4B98470022094BE25438BD81020000E1
S11322A015210000020200000302000006020000E3
S11322B007020000FFFF0000E92000008202000086
S11322C0F1240000452800008D02000082B06B4616
S11322D000910192A62292009446604406CB06C067
S11322E002B0704782B06B4600910192A82292001E
S11322F09446604406CB06C002B0704708B5A423D8
S11323009B00C358002B01D0081C984708BDC04649
S113231008B5A5239B00C358002B01D0081C98477F
S113232008BDC046F0B585B003930AAC0027E75753
S11323300BAC2678A624A4000559002D05D104343D
S11323400459E30706D4101C0DE0A724A400045983
S1132350E30702D56310C3585D59039B6410001949
S113236000970196A84705B0F0BDC04610B5A82354
S11323709B00C258002A04D10433C358DC0705D497
S11323800AE0A9239B00C358DC0702D55C1004595A
S1132390A2585B10C018904710BDC046F0B587B076
S11323A0041C0721124B98470390227C0F2702AB91
S11323B09C466744201CE1683B1C0E4DA847051C45
S11323C0201C0621802207230B4EB0477F21294081
S11323D03B786A460C269657009642424241019247
S11323E0201CE268054DA847E06007B0F0BDC04678
S11323F0212A0000612B00008D2A00002523000003
S113240030B583B0041CC16002742F492F4B984728
S1132410C423E356013304D12D482E4928222E4BE0
S11324209847231CC433DA685B681360E023E356DF
S1132430013304D1264827492822274B9847231CD7
S1132440E033DA685B6813600620244B9847C423A2
S1132450E356013304D11E481E4928221E4B9847D7
S1132460231CC4331A695B681360201C0E210022EC
S11324701B4B9847201C0F211A4B984708230093A5
S1132480201C02211F220023174DA847FF204000D3
S1132490124B9847154D201C01211F220023A847E9
S11324A00828F8D101230093201C0421202204339E
S11324B00D4DA847201C0E210C22094B98470023E0
S11324C0E371237203B030BD40420F0019290000AC
S11324D0D8EA0000F0EA0000894F000069500000CB
S11324E0B9290000212A0000A52A00008D2A000035
S11324F0F0B54F4680B486B002900F236B44197038
S11325001B78DBB2052B3BD89B00654AD3589F460A
S1132510082316226A44137015226A441370B4E027
S1132520062316226A44137015226A441370ACE021
S1132530092316226A44137015226A441370A4E016
S1132540162316226A44137015226A4413709CE001
S1132550192316226A44137015226A44137094E0F6
S1132560082216236B441A70053A15236B441A701B
S1132570029BDB79052B00D18EE0012399463DE0D7
S113258002980421474B9847082316226A44137083
S113259015226A44137078E0E023029AD35601337B
S11325A004D1414841492822414B9847029BE033DA
S11325B0DA685B681360FA2040003E4B9847642455
S11325C03D4F17256D443B4E029801211F220023E5
S11325D0B84728702B78082B05D03220B047013C2F
S11325E0E4B2002CF0D117236B441B7800229146EF
S11325F0082B03D0029801212A4B984715236B44DA
S11326001B780093029802211F2200232B4CA04721
S11326108C24294F17256D44264E029801211F2230
S11326200023B847287016236B441B782A78DBB242
S1132630934205D02020B047013CE4B2002CECD1F9
S113264016236B441B7817226A441278DBB2934238
S113265003D002980121134B98474B46002B0ED010
S1132660E023029AD356013304D10F480F4928229C
S11326700F4B9847029BE0331A695B6813600F2382
S11326806B441B78029AD37106E0029BDB79052B1D
S113269082D000239946B1E706B004BC9146F0BD50
S11326A080EC0000FD220000D8EA0000F0EA0000FF
S11326B0894F0000695000008D2A0000A52A0000FF
S11326C070B5041C0D1C0B072BD5C379991EFD2274
S11326D0114202D1154B984723E0012B07D1002169
S11326E0134B9847217A201C124B984719E0032B6F
S11326F017D10221E02202330F4EB047032806D03F
S113270007D30538434243410321C91A02E001219A
S113271000E00021201C064B9847217A201C054B21
S11327209847201C291C054B984770BD9D23000029
S11327306D230000F12400008D2A00001123000005
S1132740F0B5474680B482B0051C082964D88900D6
S1132750354B5B589F46D4B2231C0B3B0F2B07D839
S1132760009408211F220023304EB0472C7156E0FC
S113277002212F4B984752E0D2B2131C1133DBB223
S1132780142B09D842712B4AD35C009305210F22E4
S11327900023264CA04742E00221254B98473EE007
S11327A0D2B2032A07D8827100920821602205233D
S11327B01E4CA04733E002211D4B98472FE0D1B2B5
S11327C001721D4B98472AE094B2E2B222211B4EBB
S11327D0B047220A281C2321B04720E094B2E2B279
S11327E02021164EB047220A281C2121B04716E0AA
S11327F0171C0832141C2426104B98463A78281CBF
S1132800311CC0470136F6B20137A742F6D106E0C3
S1132810D1B20B4B984702E00221054B984702B016
S113282004BC9046F0BDC04698EC0000A52A000008
S1132830FD220000BCEC0000F1240000B9290000D6
S1132840A928000070B5041C0E1C151C93780133D4
S11328509370E023C356013304D10F480F49282253
S11328600F4B9847231CE0331A695B681360E0231D
S1132870E356013304D1084808492822084B9847F5
S1132880231CE033DA685B681360201C311C2A1CAB
S1132890044B984770BDC046D8EA0000F0EA000037
S11328A0894F0000D92A0000F8B5061C0C1E342CF0
S11328B00FD0342903D8002533290BD007E054293D
S11328C003D00125942905D001E0032502E0FF246B
S11328D011E00225301C02210322084FB847301CA6
S11328E00C21074B98470323021C9A431543EAB271
S11328F0301C0C21B847201CF8BDC046B929000083
S1132900212A000008B5024B1868024B984708BDFD
S1132910304000201D2C000070B584B0051C0E1C36
S1132920A823C356013304D1184819492822194B46
S113293098472B1CA8331A695B6813602C1C143449
S1132940201C08210022144B9847201C311C134BD7
S1132950984701AC201C124B984720230193002375
S113296063600122E272A3720020211C0D4B984780
S11329700D4B1D600D48002100220D4B984700208F
S113298000210C4B984704B070BDC046D8EA000043
S1132990F0EA0000894F0000A14C0000BD4C00008B
S11329A05D41000071410000304000200529000015
S11329B05D40000085400000F8B5041C171CC023CE
S11329C019430D1C183BC356013304D11048114957
S11329D02822114B9847231CA833DA685B681360DC
S11329E0261C1436301C291C0C4DA847301C391CDD
S11329F0A847A823E356013304D1054805492822F2
S1132A00054B9847A834236962681A60F8BDC0462C
S1132A10D8EA0000F0EA0000894F0000D54C00001D
S1132A20F8B5041C3F25294041350D43A823C3565E
S1132A30013304D1114812492822124B9847231C10
S1132A40A833DA685B681360271C1437381C291C08
S1132A500D4EB047381C291CB047C5B2A823E35615
S1132A60013304D1054806492822064B9847A83467
S1132A70236962681A60281CF8BDC046D8EA0000C1
S1132A80F0EA0000894F0000D54C000038B5151C51
S1132A901C1C034B984728402041C0B238BDC04697
S1132AA0212A0000F0B583B0051C161C1C1C08ABC1
S1132AB01F780191064B9847B043C0B23A1CA2401C
S1132AC032400243281C0199024B984703B0F0BDE1
S1132AD0212A0000B9290000F0B583B0061C0F1CA0
S1132AE0151CA823C356013304D1194819492822B7
S1132AF0194B9847331CA833DA685B6813601423B6
S1132B009C46B4446346019360466021134CA0473D
S1132B100198391CA0472C1C013FFFB20137ED1965
S1132B200E4F21780198B8470134AC42F9D1A8235B
S1132B30F356013304D1064806492822064B984728
S1132B40331CA8331A695B68136003B0F0BDC04638
S1132B50D8EA0000F0EA0000894F0000D54C0000DC
S1132B60F0B557464E46C0B483B0071C0191151CFE
S1132B709946A823C356013304D124482449282262
S1132B80244B98473B1CA833DA685B681360142312
S1132B909C46BC44634666460093181C20211E4C88
S1132BA0A047301C0021A047C6B2AE4218D8019AF3
S1132BB0141C731EDBB20133D518174B9A460098C8
S1132BC00021D04720700134AC42F8D14B46002B91
S1132BD008D000980021104B98474B46187001E02C
S1132BE080231E43A823FB56013304D10748084918
S1132BF02822084B9847A8373B697A681A60301C2A
S1132C0003B00CBC91469A46F0BDC046D8EA000019
S1132C10F0EA0000894F0000D54C000038B5041CD0
S1132C200F210C4B9847051C430704D5201C062193
S1132C30084B984720702B0707D52378002B04D125
S1132C40201C0621034B98472070201C291C024B92
S1132C50984738BD212A0000C126000030B585B050
S1132C600E480F490F4B9847012300930024019409
S1132C70029403940C480D499622520000230C4DF3
S1132C80A8470323009301940294039409480A4932
S1132C90E12292000023A84705B030BD94450020EE
S1132CA0D4EC0000614F0000AD3B0000E4EC0000F8
S1132CB0F5090000193A0000E8EC000030B58FB0C7
S1132CC01C4B984772B6BFF35F8F00231A4A1370E8
S1132CD008AD0893099301222A720BAC0B930C9351
S1132CE02272281C154B9847089B0B936B686360F2
S1132CF06268134B9A4202D90B9B01330B93002356
S1132D000C9304AC08AB6A4623CB23C2201C0B995A
S1132D100C9A0D9B0B4DA8470B4B983307CC07C35C
S1132D200A4B98470122044B1A70BFF35F8F62B6B7
S1132D300FB030BDED030000D0000020811600006C
S1132D407F3E0000FD130000CC420020353500001A
S1132D5010B584B00E480F490F4B984701AC201CA6
S1132D600E4B98471C230193002363600122E272F7
S1132D70A3720820211C0A4B98470A480821002204
S1132D80094B984708200021084B984704B010BD10
S1132D9094450020F0EC0000614F00005D4100000C
S1132DA071410000BD2C00005D4000008540000022
S1132DB07047C04610B5041C064B0360191C18313B
S1132DC0DC2281504C3304328350DC30024B984770
S1132DD0201C10BDF0F10000254F000008B4024B88
S1132DE09C46DC3808BC6047B52D000008B4024B93
S1132DF09C46E03808BC6047B52D000010B5041CA3
S1132E00014B9847201C10BD7B660000F0B5E9B06B
S1132E1001AC01900291039204AA562111705370DF
S1132E200199029AFA23DB014B439B18227A002A68
S1132E3000D15B4204AA93701912D1701914117154
S1132E401B0E53711DA8111C0622094B9847061E20
S1132E500BD00024074DDC35074F1DAB195D281C32
S1132E60B8470134E4B2A642F7D869B0F0BDC04611
S1132E707D01000004410020494F000010B50B1CE7
S1132E804343002B13D00023FA24A400884201DD1D
S1132E90401A00E0091A01330A1C4243002A03D0F5
S1132EA0A342F3D1012107E0044A934203DC002842
S1132EB002D0011C00E00121081C10BDE703000042
S1132EC0064A002313605360054AA421535020315D
S1132ED0535004315350103953507047F841002077
S1132EE0CC420020F0B55F4656464D464446F0B409
S1132EF091B0A423C24AD358002B00D178E1C14831
S1132F00C14B9847BE492223FF33C85C0DABBF4A6F
S1132F101C1CE0CAE0C4A8228A5C197AD3B2804699
S1132F208B4206D0002190235B00B54AD154002384
S1132F309846B34FC423F858203BFC58B44EB047CE
S1132F40051C201CB047011C281CB24B9847051CCB
S1132F50B14B9847061C0790C823F858AF4F211C63
S1132F60B847AF4B984702900391301CAD4B98473C
S1132F70011C281CAC4B9847AC4B98470022AC4B27
S1132F80AC4DA847021C0B1C02980399AA4DA847F4
S1132F90AA4B984708909D4E3068211CB8470AAD4B
S1132FA00A907068211CB8476860337ADBB22B72D0
S1132FB00798089A0A9C6968FA23DB0163435F183F
S1132FC02B7A002B00D17F429D4B1B689D4B1C68C4
S1132FD0002F00D1F8E09C4B9C4227DCFA23DB0154
S1132FE0584380188A4B984702908E4E974D894BD0
S1132FF09A46FA239B009946954B9B460497201CBE
S1133000B0479449A847071C0498B047011C381CD2
S1133010A8470299D047071C01344C4509D0FC212C
S11330208905D8470028EAD13A1C03E000231A1C7A
S113303000E0021C724E90235B00F55C2B1C1933DC
S1133040DB00F3189A60EB00F618CC36201C754BA5
S11330509847B0600135EDB209224346D90FD31722
S1133060404682424B419844A84504DB90235B00D0
S1133070634AD55404E0002190235B00604AD15494
S11330804346002B18DD5E4A161CD0361A33DB008B
S1133090D51800240294704F2B1C251C1C1C02986C
S11330A03168B8470290281C7168B847051C083677
S11330B0A642F4D1041C01E0002402944046674B6C
S11330C0984704900591594F0298B847644E049A62
S11330D0059BB047634DA8470290201CB847049A4B
S11330E0059BB047A84704904B4A93469047041C5D
S11330F072B6BFF35F8F5C4D00232B70504F3E6858
S11331000298D847801B3F68C71901232B70BFF36F
S11331105F8F62B6002F0EDA381C424B9847011CB1
S11331200298414B9847BF210906494B9847431ED3
S113313098413F1A0DE0381C3A4B9847011C0298FD
S1133140394B9847FC218905484B9847431E9841C1
S11331503F18201C334B9847011C0498324B984766
S1133160FC218905414B9847431E98412418201C93
S1133170391C3F4B9847031C3E4A9246201C02933D
S1133180191C9047041C72B6BFF35F8F364A9146F0
S1133190002313702A4D2A6893462E68381C02991E
S11331A0D0475B46C01A86192E60264B1C60324BF2
S11331B01C6001234A461370BFF35F8F62B622235B
S11331C0FF330F4A4146D1542C4B98471C4B1A6885
S11331D00AAB1B7A2A4D009343460193281C2949C4
S11331E0231C294CA047281C074CA0472748A0476C
S11331F011B03CBC90469946A246AB46F0BDC046D1
S1133200CC42002000ED0000153C0000F8410020F5
S113321015780000016E0000457700008566000007
S11332207D9400008577000049740000E19400005B
S11332300040DF4071870000A5780000CD6A0000DF
S1133240503D0020283D0020E7030000E571000008
S1133250296A000000401C46096B00000594000028
S1133260F57E000089950000D0000020516A00001E
S11332707D2E0000A5670000303D0020C12E000017
S11332800442002018ED000069B400004CED000079
S1133290F0B58BB0A423734AD3580020002B00D17F
S11332A0DDE07148714B984707AF002307930893FB
S11332B001333B726B4CC333E058203BE358039318
S11332C06B4EB047051C0398B047011C281C694B82
S11332D09847051C684B9847061C0790C823E0587C
S11332E00399664B9847664CA04704900591301C9F
S11332F0644B9847011C281C634B9847634B9847C1
S11333000022634B634DA847021C0B1C04980599CB
S1133310614DA847614B98477860079B7A68FA2605
S1133320F60173439F185E4B1868A047021C0B1CE0
S1133330002057495B4DA8475B4B984704905B4A74
S1133340106853687043C018137A002B00D14042B0
S11333500399574B98474B4DA847061C381C484BBC
S1133360984700224A4B4F4CA0474F4B9847011CAB
S1133370404C301CA047404B9847A8474D49A047B4
S1133380041CFE2189054C4B984700280AD0FE20D6
S11333908005211C3C4B9847011C0498354B9847E9
S11333A0051C09E0201CFE218905444B9847011C9B
S11333B00498304B9847051C3E48291C2D4B9847D0
S11333C0061C2D4B9847041C301C304B9847061C98
S11333D00F1C201C2A4B9847021C0B1C301C391C48
S11333E0374EB0470022374B374EB047431E984103
S11333F02418FA23DB019C4200D91C1C284B1B68AF
S1133400A34228D0264E3460304B98470023304ADC
S11334101360144A2221FF31535401395354326842
S11334202C4B9A6137682C4E281C134B9847051C6B
S1133430FA20C001391C114B9847031C0094301C1E
S113344026492A1C264CA047301C084CA047254876
S1133450A047012003E02348044B984700200BB009
S1133460F0BDC046CC42002068ED0000153C0000D1
S113347015780000016E00004577000085660000A5
S11334807D9400008577000049740000E1940000F9
S11334900040DF4071870000A5780000CD6A00007D
S11334A0C8000020F57E000089950000F841002046
S11334B0A56700000000FA46296A0000096B0000B5
S11334C0A58C00000000E03FDD690000C12E000073
S11334D0503D0020001400400442002080ED000014
S11334E069B40000A8ED000008B50C4B98470C4BDC
S11334F01B68C01A0B4B98420ED9A4230A4AD3580E
S1133500012B09D9054B9847054B1860074B984781
S1133510002801D1064B984708BDC046490C00005D
S11335203440002088130000CC4200209132000077
S1133530E52E0000F0B5474680B490B0644AA0235D
S1133540D35CDBB291214900525C9A425AD1604C5F
S1133550A023E25C0B1C62546A3BE358AC25635124
S1133560BC23E2580C3BE250201CB830594B98471E
S11335706359002B48D0564A131CB033694611CB0B
S113358011C1AC23D358B8215058B832516892684D
S1133590514CA047002832D00AAE4D4D2B1CAC3301
S11335A06A4613CB13C2301CB823E9582B1CB8331A
S11335B05A689B68494CA04706AC6B4607CE07C3C4
S11335C0201CC423E9582E1CC4367268B368444FC7
S11335D0B846B847231C07CB07C6424E2B1C98336A
S11335E06A4683CB83C2201C31687268B368C047C3
S11335F00ECC0EC6A422AB580133AB5004E03A4BB8
S1133600984701E0384B9847314EA0239846F25C26
S11336108233F2540DAD281C2E4B984706AC331C54
S113362098336A4683CB83C2201C0D996A68AB68C1
S11336302B4FB847231C07CB07C50D986168A268B8
S11336402A4B98479823F058331C983359689A6842
S11336500123274CA0474346F35C002B18D01C4998
S113366098200A589C240B590E58085909590D9D45
S11336700E9C0096400901901F2001404801411A08
S11336800291039504941B481B491C4CA04717E066
S11336900F4998200A589C240B590E580859095967
S11336A00D9D0E9C0096400901901F200140480189
S11336B0411A0291039504940E4811490F4CA047F6
S11336C00C48104B984710B004BC9046F0BDC0465F
S11336D0CC420020811600008D130000FD13000071
S11336E001150000F8410020C12E00000D17000054
S11336F00D2E000038400020B8ED000069B4000031
S1133700FCED0000153C0000CB18C018C0B2002925
S11337100AD0131C0139C9B2013152181978401862
S1133720C0B201339342F9D17047C04610B50023AB
S1133730014CA04710BDC04609370000F0B547460C
S113374080B400AF0C1C0B1C0B33DB08DB00694698
S1133750CB1A9D466D4655232B7000236B70A870C1
S1133760002C0AD0EC70E918D65C0E710133D9B282
S11337708C42F8D8231C012601E0002600230333E1
S11337809846B044211C074B98474346E8540434F8
S11337903119C9B2281C044B9847BD4604BC904655
S11337A0F0BDC0462D370000891B000000B585B070
S11337B001A80B4B9847019B6A461370019B1B0A97
S11337C05370029B9370029B1B0AD3700120042147
S11337D0044B98470448054B984705B000BDC046C4
S11337E0811600003D37000040EE0000153C00004B
S11337F008B5074B9847074B1B68C01A064B9842FD
S113380005D9034B9847034B1860044B984708BDF0
S1133810490C00000041002088130000AD3700006F
S113382030B587B0041C6B4618701E4943001A1843
S113383092005258684642701A1992005258120A5D
S113384082701A1992008A1850686D46E87052689E
S1133850120A2A7103AA01201072134805680395FD
S1133860406804901B199B0000205850039B694634
S11338704B71039B1B0A8B71049BCB71049B1B0A2A
S11338806A460B7203300921084B9847084D281CDF
S11338900849221C084B9847281C084B984707B036
S11338A030BDC046CC420020BC0000203D370000A3
S11338B0F04300204CEE000069B40000153C000009
S11338C0F0B5474680B48CB0434B984700287FD06E
S11338D06420424B9847424B9847552878D1404D35
S11338E0A847061C03AC6070A8472070022802D0C9
S11338F0042825D067E03A4B9847041C212303AAE7
S1133900D054022000210022331C364DA8478442A3
S11339100FD0354B984773009E19B6000022334BE5
S1133920F250334B9847334B98473348334B9847BF
S11339304EE03348314B9847301C324B984747E0B0
S113394031482E4B9847264B9847804603AB9870D6
S113395000280DD00F246C44451EEDB20CAB9C46E0
S11339606544203D1E4FB84720700134AC42FAD163
S11339701B4B9847041C212303AAD054042041461E
S11339800F226A44331C174DA847844203D01F48B2
S11339901A4B98471CE003AB1A791102DA780A43F0
S11339A000929A7911025A790A430192DB795A1EDC
S11339B09341DBB26A46137200980199029A331C50
S11339C0134CA04704E013480C4B9847094B984705
S11339D00CB004BC9046F0BD5D1B00007D0E0000E1
S11339E0CD1B00000937000019120000CC42002052
S11339F031120000751B00006CEE0000153C000045
S1133A0078EE00002138000090EE0000A0EE0000E7
S1133A100D2E0000ACEE0000F8B572B6BFF35F8F58
S1133A2000222F4B1A7000232E4800215A00D2186E
S1133A309200115001330B2BF8D12A4C0023A422FD
S1133A40A35029490B604B60A33A0A72B821635012
S1133A5004316350043162541439635004316350A7
S1133A60043162546C3163542221FF316354993917
S1133A70635004316350043162548332A354942557
S1133A80635101200021813A184B98476051002866
S1133A9004D0002100220023154CA0470122104B22
S1133AA01A70BFF35F8F62B6124B98470D4D124FD9
S1133AB02E1C9423EB58002B0FD0B8479423F058B6
S1133AC00021FA22520000230C4CA047012804D103
S1133AD063300B4B98470B4B98470B4B9847E8E7E1
S1133AE0D0000020CC420020F8410020A5050000B1
S1133AF0F5050000AD370000F13700008507000030
S1133B007D0E0000C1380000E934000010B5041C2B
S1133B10084B0360191C1831DC2281504C330432E9
S1133B208350DC30044B9847201C044B9847201CDE
S1133B3010BDC046F0F10000254F00007B66000078
S1133B4008B4024B9C46DC3808BC60470D3B0000BF
S1133B5008B4024B9C46E03808BC60470D3B0000AB
S1133B6038B5064C201C042105220023044DA84727
S1133B70201C0449044A054B984738BD04410020E1
S1133B80194D0000B52D0000B00000206D66000046
S1133B9008B50348DC300349034B984708BDC046C9
S1133BA0B8440020C0EE0000614F0000F0B583B0BF
S1133BB0322004210022104B9847104B18601F1C20
S1133BC00F4DDC353B68002B08D110E0281C01990F
S1133BD00C4CA047281C0C49A04700E0074E306855
S1133BE001A900220023094CA0470028EED1FA20A5
S1133BF04000074B9847E5E7A5050000AC450020C9
S1133C00B8440020614F0000D8EB00008507000095
S1133C107D0E000010B582B00190084B1868002892
S1133C2009D001A900220023054CA04701384342D2
S1133C305841C0B200E0002002B010BDAC450020E5
S1133C40F505000038B5064C201C0421052200238C
S1133C50044DA847201C0449044A054B984738BD25
S1133C60B8440020194D0000B52D0000B00000201C
S1133C706D66000008B572B6962001F001FA962030
S1133C8001F0FEF9F8E7C0460B4A30B59468926833
S1133C90231C002A0CD1002380221D5992059A1856
S1133CA004331560B02BF7D18023034A9B0593603E
S1133CB010308000C15030BD00ED00E008B5044B69
S1133CC01A78002A03D101321A7000F023FC08BDCF
S1133CD0B0450020036870B51B6900210122041C53
S1133CE09847061C431C0ED0236800211B6902223E
S1133CF0201C9847051C2368201C1B69311C0022CA
S1133D009847281C70BDFDE708B503480421052227
S1133D1000F03EFD08BDC04658470020094B10B5D1
S1133D2008330360084B00215A1CFF3202E00433BD
S1133D30934206D01C688442F9D11960043393423B
S1133D40F8D110BDE8EE0000B4450020F0B54746B8
S1133D5080B40E1C82B03449051C07F01DFC041EFF
S1133D6008D1324B1B68002B0FD0201C02B004BCBE
S1133D709046F0BD281C2E4907F00EFC002807D100
S1133D802A4B01241B68002BEFD1FFF7BDFFECE7A2
S1133D90281C284907F000FC002824D0264F0024C2
S1133DA03B1C03E001340433402C22D01A68002A5F
S1133DB0F8D12B783A2B30D06846291C00F072FEDB
S1133DC0684600F0C9FE002813D0684600F0A6FE3D
S1133DD0002811D0684600F0ADFE002809D0A300E9
S1133DE0F8500334C1E7114B02241B68002BBCD1EB
S1133DF0CBE701246442B8E7684600F081FE051E63
S1133E00F7D0036868469B68984600F077FE0B4A33
S1133E10011C3240281CC047DFE7281C08496A46B9
S1133E2007F044FB0098D8E7D0EE0000BC46002021
S1133E30E0EE0000D8EE0000B4450020FFFFFEFFD6
S1133E4014EF000008B5031C0020022B0ADD07490B
S1133E50033B9B005A585850002A04D01368101C86
S1133E605B68984708BD01204042FBE7B445002049
S1133E70F8B50C1C171C022812DC104B1B68002B15
S1133E8001D1FFF741FF002F08D00D4DE61921782D
S1133E90281C013400F0E6FDB442F8D1381CF8BD0A
S1133EA00338084B8000C058002803D003681B68FF
S1133EB09847F4E701204042F1E7C046BC460020A1
S1133EC058470020B445002010B50C1C022809DC1A
S1133ED00C4B1B68002B0FD00B4800F097FD207093
S1133EE0012010BD0338094B8000C058002806D0BB
S1133EF003689B689847F4E7FFF706FFECE70120A7
S1133F004042EEE7BC46002058470020B44500205C
S1133F1008B5031C0120022B08DD033B054A9B0066
S1133F209858002803D00368DB68984708BD01202F
S1133F304042FBE7B445002008B5031C0020022BD7
S1133F4008DD033B05489B001858002803D003688C
S1133F501B69984708BD01204042FBE7B445002097
S1133F6008B5022804D8802300209B014B6008BDBB
S1133F7005F0C6FB0923036001204042F7E7C04671
S1133F8008B5012005F0C2FB7047C04608B5FFF72D
S1133F9095FEFFF7F9FFFDF783FE08BD074A136896
S1133FA01818EFF30881884202D21060181C704779
S1133FB00C220120024B40421A60F8E7CC0000209A
S1133FC0C847002008B5002800D1FEE7FFF752FEDD
S1133FD0FBE7C04608B5002107F0B3F908BDC046A9
S1133FE0FEE7C0461648174910B588420DD0164B57
S1133FF099420AD2CA43D31800229B0801339B007A
S113400084588C5004329A42FAD11049104B994288
S11340100BD2CA430020D31800229B0801339B0013
S11340208C18043220609A42FAD1FF21094B0A4AC3
S11340308B43936005F09AFEFFF7A8FFFEE7C046A6
S11340405CFD0000B0000020740100207401002019
S1134050CC4700200000000000ED00E01723002AF8
S113406001D0181C7047064A89008B58002B03D0D6
S1134070834203D01D23F4E78850F2E70023F0E7DE
S1134080184700201723002901D0181C704700226C
S11340901F2800D8024A01238340D3600023F4E799
S11340A000180040F8B5002301260B4C0B4D0C4FB3
S11340B02370321C9A402969114205D02A619B0061
S11340C0DB59002B00D0984723780133DBB22370EF
S11340D00F2BEED9F8BDC04614470020001800404D
S11340E0184700200223044A11780B4313705378B5
S11340F05BB2002BFBDB704700180040402300B587
S1134100124A83B0916905200B439361002301A9EE
S11341100B7000F0C9F9052000F088F901230C4A5E
S113412011780B43137053785BB2002BFBDB094B04
S11341300022191C403104C38B42FCD11022064BCF
S11341401A60FFF7CFFF03B000BDC0460004004073
S1134150001800401847002000E100E0002301227D
S1134160036043608372023302724272C372704707
S1134170F0B500230C1C83B001A94B70CB702379DC
S1134180051C0B70237A20788B70002600F082F8CF
S11341901F2D00D8124E0722A37A2A409200E07AFB
S11341A0002B01D0082318430F279740EB089B00EE
S11341B0F31899699040B9430A1C02439A61637ADF
S11341C0002B06D10122AA4073699343736103B0A3
S11341D0F0BD0122AA40151C73691D437561F6E701
S11341E000180040D37870B5002B31D11478802C9E
S11341F047D0802324065B021C43537802251E1CEF
S1134200AE4307D19378002B37D180239B021C4304
S113421041605378013B012B35D9A0250B04ED05F2
S11342201B0C2B43D025234383622D060B0C2B43FD
S113423023438362D378002B09D1630303D5937896
S1134240012B23D041615378013B012B13D970BD5D
S1134250A0240B04E4051B0C2343D0244160240652
S113426083620B0C23438362D378002BEFD1537802
S1134270013B012BEBD88160E9E7C023DB021C433F
S1134280C6E70024B9E7024B1C40C6E78161DAE7C0
S1134290FFFFFBFF08B50A1C031CC109002000290D
S11342A004D1064958098C46C00160441F210B40C3
S11342B01E399940FFF796FF08BDC04600440041EF
S11342C00823064A91690B43936101230121044A9F
S11342D0137013781942FCD17047C04600040040A3
S11342E0000C004070B50D784B782D02041C05437A
S11342F0002B02D08023DB021D434B7A002B02D01B
S113430080231B031D434E68012E0FD9731E3340B7
S113431029D1022E05D00222013352009642FBD845
S11343201B0218438023041C5B031D430B7A002BE0
S113433002D080239B031D430E4A53780D4E5BB27B
S1134340002BFADB00F0F2F8B4607378094A5BB230
S1134350002BFADB802351685B020B401D43556040
S113436000F002F970BD802334029B0204431D4314
S1134370DCE7C046000C004010B5041C0B4A53781F
S11343805BB2002BFBDB00F0D1F8094B07491C7032
S11343904B78064A5BB2002BFADB80215368490252
S11343A00B43536000F0E0F810BDC046000C004021
S11343B0040C0040F8B5071C194A53785BB2002B73
S11343C0FBDB00F0B3F8174B154A1F705378144CFD
S11343D05BB2002BFADB6068C004C00E00F06CFF17
S11343E0061C104B1F7065680F4BED02ED0F1F701C
S11343F063785BB2002BFBDB094B9968090A8CB22A
S113440000F0B2F8002D03D0611CCE40301CF8BD82
S1134410012CFBD9301C211C02F034F9061CF5E7F1
S1134420000C0040040C0040080C004010B5041CB3
S113443000F07CF88021054B054A1C705388C901A3
S11344400B43538000F090F810BDC046020C0040AE
S1134450000C004010B5041C00F068F880200E4BDE
S11344600E4A1C7054880E4B518824050B4053800F
S113447051880C4B240F0B405380C00153880749CB
S11344800342FBD14888064B2202034013434B806E
S113449000F06AF810BDC046020C0040000C004059
S11344A0FFF0FFFFFFBFFFFF10B50C7824020443A9
S11344B0FFF7D0FF014BA4B25C8010BD000C00409C
S11344C010B5041C00F032F8054B064A1C7080231A
S11344D051881B020B43538000F046F810BDC046C0
S11344E0020C0040000C004010B5041C00F01EF843
S11344F0054B1C70054B5C8800F036F82405240F2E
S1134500201CFFF757FF10BD020C0040000C0040B8
S11345107047C04608B500F063FFFFF7F9FFFFF7E7
S1134520F7FFFFF7EBFDFFF7F3FF08BD0B4B1A682E
S1134530002A05D1EFF31081002905D008490A703B
S11345401A6801321A60704772B6BFF35F8F054A6A
S11345501170034A01311170F2E7C046B4460020DD
S1134560B8460020D0000020084B1A68013A1A60AF
S11345701B68002B09D1064B1B78002B05D00122A8
S1134580044B1A70BFF35F8F62B67047B4460020C5
S1134590B8460020D0000020F0B54F464646C0B4CF
S11345A0041C85B000285CD0006800F06DFE0E2568
S11345B0002314306D44C0B22B80A7696669FFF7ED
S11345C093FF1023011C0093381C2A1C002300F0C5
S11345D073FD2268D369002BFCD12B889381E26898
S11345E0236913431D22A256013228D0C025AD02EF
S11345F01D431C23E356013319D0A268FF2A1BD0A4
S1134600294B15431E43002C25D02268D369002B67
S1134610FCD15560002C18D02268D369002BFCD142
S11346200020166005B00CBC90469946F0BD1F4BA7
S1134630A2681D40FF2AE3D11D4B1E43E3E71D4D35
S11346401D4080235B021D43D3E71B481B493F22C7
S113465000F09AFCE0E7184818493F2200F094FC67
S1134660D3E7154B154F181C391C9C22984600F0B3
S11346708BFC206800F008FE0E25A36914306D44FD
S1134680C0B299462C806669FFF72EFF1023011CE7
S113469000932A1C4846002300F00EFD4046391CB6
S11346A03F2200F071FC94E704000041FFFFFEFF8D
S11346B004000040FFFFFDFF30EF000034EF000076
S11346C070B5051C86B000283CD01C201D21002399
S11346D028566956029303930493059301F02AF82C
S11346E00024061C1C202B191856311C01F0B2F8AA
S11346F0A30002AA0134D050042CF3D1039B002060
S11347000193013B022B02D8114A9B0098581E22A8
S1134710AB5E013308D0029B002B03D1049B0193B1
S1134720022B08D006B070BD029B022BFAD1802365
S11347305B021843F6E7059B032BF3D180239B020E
S11347401843EFE703480449712200F01DFCBCE75D
S113475024EF000030EF000034EF000010B5041E19
S11347600BD0FF23A3600023E360236196239B0106
S1134770A36188235B03636110BD03480349E122FD
S113478000F002FCEDE7C04630EF000034EF00001B
S1134790F0B54E4645465746E0B4041C84B00E1CA2
S11347A0151C002800D19DE0604F3B78002B00D100
S11347B083E0201CFFF7D2FFFF232677A377E3775C
S11347C06577201CFFF77CFF291C071C301C00F0B8
S11347D0B1FF431C17D00F2505400120291C40427E
S11347E001F05AF8061C021C2060002C6AD0D36920
S11347F0002BFCD1022113688B4313600122236830
S11348001868024205D004B01CBC90469946A246E2
S1134810F0BD1B6819408846F5D1A81C8240444964
S11348200B6A1A430A62424602AB1A701423994671
S1134830A94402A94846FFF737FE4846FFF7F6FDAC
S11348400021002000F000FD6761201CFFF7A4FE9A
S1134850424602AB5A719A71DA712023271C9A4698
S11348601C37A2440023FB56994601330FD0484617
S1134870291C00F0CBFF02ABC0B21871FF2806D090
S11348806A464B46D371D07903A9FFF703FD01377C
S11348905745E7D1274B9E4230D0002C28D02368BF
S11348A0DA69002AFCD1002C31D0DA69002AFCD163
S11348B0196802320A431A60A5E7FFF72BFE0123A9
S11348C03B7076E71C4B562299461C4B484698464B
S11348D0191C00F059FB3F224846414600F054FBA6
S11348E0226884E714481549ED2200F04DFB5BE78C
S11348F0114812493F2200F047FBD0E70122104B38
S1134900211C1A600F48473205F0CDFAC5E70A4E5C
S11349100A4D301C291C4A3200F036FB301C291C7D
S11349203F2200F031FB2368BFE7C046B0450020BA
S1134930000400400008004230EF000034EF0000A3
S1134940BC46002058470020F0B54746041C80B4FC
S11349500E1C151C002820D0184B19602268184B17
S11349609A4218D00DDC174901238A4203D0164914
S113497001338A420DD1154A9B009D5004BC9046D8
S1134980F0BD134904238A42F5D0124901338A4207
S1134990F1D00023EFE70323EDE70F4BB322984652
S11349A00E4F181C391C920000F0EEFA034B4046DF
S11349B0391C0B4A1E6000F0E7FACFE7D846002006
S11349C000140042000C004200100042C0460020C7
S11349D000180042001C004230EF000034EF0000D9
S11349E06602000010B5041E04D02368187E400738
S11349F0C00F10BD02480349034A00F0C5FAF4E7AA
S1134A0030EF000034EF00002303000010B5041E53
S1134A1008D0201CFFF7E6FF0028FAD02368188D81
S1134A2080B210BD02480349034A00F0ADFAF0E732
S1134A3030EF000034EF00001103000010B5041E35
S1134A4004D0012023681B7E184010BDCC220348EB
S1134A500349920000F098FAF3E7C04630EF0000F3
S1134A6034EF000038B5041C0D1C00280ED0ED05F1
S1134A70ED0D201CFFF7E2FF0028FAD00222236884
S1134A801D8521680B7E1A42FCD038BD02480349BB
S1134A90034A00F079FAEAE730EF000034EF00004F
S1134AA01903000038B50023036043600B78041C2D
S1134AB02F2B01D0201C38BD4B78002BFAD0481C7A
S1134AC020604B782F2B14D0002B15D0031C01E051
S1134AD0002A0CD05D1A013323601A782F2AF7D1EB
S1134AE0291C0133236001F02FFB6060E2E7291CDD
S1134AF0F9E7031C0021F4E70021F4E7006870479C
S1134B00436810B5002B07D0041C181C01F03CFBB3
S1134B10012801D1606810BD0020FCE7406808B599
S1134B20002805D001F030FB43425841C0B208BD13
S1134B300020FCE7436810B5002B0AD0041C181CA5
S1134B4001F022FB002804D16068002801D0043859
S1134B5010BD0020FCE7C0464068431E9841C0B227
S1134B607047C0467047C04610B5002808D0146886
S1134B705368002C05D0DA0705D45B10C018A04791
S1134B8010BDDA07FCD55B10C01803681C59A04798
S1134B90F6E7C04610B5041C01F06FFD201C10BDE3
S1134BA0F0B556465F464D46444691460022F0B461
S1134BB0051C041C87B0039310AB9A56264B8A46F7
S1134BC0083308C59346281C0021402205F074F9D7
S1134BD00023221C0493059304A9483241C941C20D
S1134BE01E4A22651E4A62651E4AA265221C48327C
S1134BF02366E46562661C4AA266BFF36F8FBFF347
S1134C004F8F8022E366A3500432A35404329046AB
S1134C1041468C27803A625090265A46E351134B02
S1134C200092A351281C51464A46039B00F092FF70
S1134C304346E259E158281C002301F083F8281C5C
S1134C40A15901F033F9201C07B03CBC90469946A9
S1134C50A246AB46F0BDC046D0F100001FB5042407
S1134C607C440FCC98471FBD694B000040420F00A5
S1134C7070B50A4D2B6883420FD08823061DC15896
S1134C800433C258041C0023301C01F05BF8902349
S1134C90301CE15801F00AF92C6070BDDC4600209C
S1134CA008B58823C1500433C2500022024B1A6055
S1134CB0FFF7DEFF08BDC046DC46002008B59023A0
S1134CC00022C150024B1A60FFF7D2FF08BDC04654
S1134CD0DC46002038B50D1C041CFFF7C9FF291C55
S1134CE0201D01F05FF938BD08B500F0B5F808BD26
S1134CF008B4024B9C46DC3808BC6047E94C000011
S1134D0008B500F0AFF808BD08B4024B9C46DC3887
S1134D1008BC6047014D000038B5041C1D1C00F0A0
S1134D2043F8201C291CDC3000F0DAF8064B201C68
S1134D301A1C191C08322260DC222031A150543381
S1134D400432A35038BDC046E8F1000008B54B005A
S1134D505918C90043181A1CB8325268A8331B6882
S1134D60002A06D0002B03D04118AC31181C904700
S1134D7008BD002BFCD09847FAE7C04610B50028C0
S1134D8008D014685368002C05D0DA0705D45B10EA
S1134D90C018A04710BDDA07FCD55B10C018036823
S1134DA01C59A047F6E7C046F0B5474680B4244BEB
S1134DB082B003600025031C171C6A46041C00957E
S1134DC001950833884603CA03C31E4B23611E4B57
S1134DD063611E4BA361231C08332562E461636293
S1134DE01B4BA362BFF36F8FBFF34F8F5C23261C53
S1134DF0E56225646564A5656036E5540133E554D0
S1134E00301C0021482205F057F8A8239622E550CB
S1134E101433E5500433E5501433E5509201043360
S1134E20E250301C41463A1CFFF7B2FC301C0949E1
S1134E30221CFFF789FD201C02B004BC9046F0BD83
S1134E4050F200001FB504247C440FCC98471FBDCA
S1134E507D4D00004D4D000008B56030FFF7D6FDD4
S1134E6008BDC04610B50C1C6030FFF7FBFD201CCC
S1134E7010BDC04600207047F8B58E18051C0F1CE5
S1134E800C1EB44202D10AE0A64208D001342B68B9
S1134E90621E5B6A1178281C9847431CF4D1E01BFE
S1134EA0F8BDC046F8B58E18051C0F1C0C1EB44284
S1134EB005D10AE00134631E1870A64205D02B68A0
S1134EC0281C9B6A9847431CF4D1E01BF8BDC046DC
S1134ED00020704700207047002070470020704772
S1134EE010B5041C84B001F051F90B4B01A81A1C35
S1134EF03C33636000230832636122600749221C4B
S1134F0006F0B2FA064901A804F034FE6061FFF726
S1134F1061F8201C04B010BD58F2000014EF00002A
S1134F209CF20000074B10B51A1C041C08323C33D9
S1134F3002604360406904F057FC201C01F03AF918
S1134F40201C10BD58F2000038B50D1C041C40692B
S1134F5004F00AFD281C616904F03EFE38BDC04619
S1134F600EB430B5041C82B005AB20CB406901936C
S1134F7004F0FAFC6069291C019A05F07BF902B07F
S1134F8030BC08BC03B0184738B5051C0C1C131CF6
S1134F90291C0248221C00F003F838BDA0F20000CE
S1134FA00FB4012008B504F0B1FBC04638B50D1CA0
S1134FB0041C00F08BFA6B1C0ED00023E356013363
S1134FC00BD0E3686268201C01211A6000F0E6FA45
S1134FD0201C002100F0BAFA38BD034803492822F6
S1134FE0FFF7D2FFEDE7C046D8EA0000D4F2000094
S1134FF002E0834206D00C310023CB565A1CF8D170
S1135000181C70474868FCE7021C08B5531C03D100
S11350100BE09A420AD00C310023CB56581CF8D12D
S11350200448FFF7BDFF0120404208BD4868431C07
S1135030FBD1F5E774F30000021C08B5531C03D13F
S11350400BE09A420AD00C310023CB56581CF8D1FD
S11350500448FFF7A5FF0120404208BD8868431CAF
S1135060FBD1F5E794F3000038B5051C00F0BCFC57
S1135070041C00F0B9FC001BA842FAD338BDC0469A
S113508008B5FA239B005843FFF7EEFF08BDC0465E
S113509010B5490840230024814202D2181C10BDD7
S11350A01C1C631C091A9BB28842F9D94023FF2CAB
S11350B0F4D814800023F1E7F0B556464D46444633
S11350C05F46F0B4041C251C87B010A80678402065
S11350D075438D4206D907B03CBC90469946A2461A
S11350E0AB46F0BD04920D1C221C002B3FD1301C9A
S11350F0002101F0C1FC002383463F2101209C468E
S11351009A462E1C00270022002380460C1C24E013
S11351104146A9400D1C4146A140101C8946191C5A
S1135120801859410B1C021C5946009201932942D4
S113513003D040461043021C019B9F420BD801D16F
S1135140964208D861464846014350462843921B7C
S1135150BB418C468246013C10D32021494265184C
S1135160D6D520210D1B4146E9400D1CD3E7002470
S1135170012B07D0049B00201C80ACE763465C42F3
S1135180240CF7E74B0F1C1CCB009846301C002363
S1135190002101F071FC00239C4620339B466346AA
S11351A0A1460090019103936B461B7B002005935D
S11351B0002300219C463F2227E001249C40231C1D
S11351C00127464697403E40041C0D1CB2464E46FD
S11351D024184D4133405646201C291C334304D027
S11351E00121231C0B43181C291C019B8B420AD848
S11351F002D1009B834206D8009B019CC01AA141A6
S113520063463B439C46013A09D320235B42D318AF
S1135210D3D55B4601249B1ADC40231CD0E76146AE
S1135220039A8B1A0749DB088B4206D9131C0133F6
S11352300393082BB8D140204DE7059A54031C432F
S1135240A4B297E7FF1F000030B50E4C83B023785B
S1135250051C002B06D0002904D1637883420FD0AB
S11352601D200BE001A913200D70FFF71DF9132079
S1135270FFF7DCF8012300206570237003B030BD14
S11352800020FBE7E046002070B586B06946094B74
S11352906A4670CB70C170CB70C10023990051581D
S11352A0814205D00133062BF8D1002006B070BD31
S11352B0D8B2FBE7C4F5000010B508282CD81B4B66
S11352C080001B589F468020000210BD184B58696F
S11352D0FBE7184B186A184B8005800FC340181C55
S11352E0F3E70220124C23681840EED01022114933
S11352F0CB681A42FCD023685B070FD40F48E4E75D
S11353000B4B1869E1E750230A4A0020D35C5B0782
S1135310DBD5074BD868D8E70020D6E70020FFF795
S1135320E3F8A3681B041B0C5843CEE7DCF500002C
S1135330E44600200008004000127A00006CDC0201
S113534010B5082841D8224B80001B589F460020E6
S113535010BD02231F4A002091690B439361F7E7B4
S113536002231C4A0020918A0B439382F0E7022314
S1135370184A0020116A0B431362E9E70223102044
S1135380154C2268134323602268144B1340114ABE
S11353909384D3680F491842FBD0A3680020CB62E2
S11353A063688B6223689BB28B84D1E74422022317
S11353B00849885C03438B540020C9E70223054A4B
S11353C00020118A0B431382C2E71720C0E7C046AE
S11353D000F6000000080040E44600207FFF0000C3
S11353E0F0B54746C2221E2180B4314BD2009A60E8
S11353F0304A0024536884B08B435360012301ADC9
S11354002B70E0B2291C0134FFF74EF8252CF8D19B
S1135410294B274C1B68A169DB045B0E1A04274B3C
S113542004260B40134308224027A361A3690420E8
S113543033431343BB43783290461343E022D200F4
S113544013431F4A1340A361FFF77AFF4246236ABE
S11354500620BB4313431B4A13402362FFF770FF2C
S11354600024FEF72DFF2023291C02206B606C70A2
S11354702C726C722E70FEF735FF0220FEF77CFF53
S1135480114B291C1C725C729C72DC72012300207B
S11354906B6005332B706C702C726C72FEF722FFFC
S11354A00020FEF769FF04B004BC9046F0BDC0467E
S11354B0000800400040004124608000FFFF80FF9E
S11354C0FFEFFFFFFFFCFFFF0004004070B5051C69
S11354D082B00C1C4B1C28D0C8B200292CDB184B02
S11354E046099C46F60166442C70E217D20EA318B6
S11354F01F241C40A41A0122131C64B2A3406B6035
S1135500002301A92B72AB726A720B708B704A7004
S113551000F06AFE331C1433EB6004332B61103645
S113552008336B61AE6102B070BD064806491F22A4
S1135530FFF72AFD2C70F6E72C700026D5E7C0464D
S11355400044004124F6000038F6000030B5041C85
S1135550007883B043B20D1C013313D0A37A01A9A0
S11355600B70237A65725A1E93418B70012D03D000
S1135570002D01D0022D00D14D70C0B200F034FED8
S113558003B030BD034804493622FFF7FDFC207800
S1135590E4E7C046D8EA000038F6000030B5041C41
S11355A0007883B043B20D1C013313D0637A01A990
S11355B04B70237AA5725A1E93418B70012D03D030
S11355C0002D01D0022D00D10D70C0B200F00CFEF0
S11355D003B030BD034804494C22FFF7D5FC2078C2
S11355E0E4E7C046D8EA000038F60000F0B54546C6
S11355F057464E46E0B4884682B0051C431C62D030
S1135600C417E20E1F24012783181C40A41A64B295
S1135610A740C6B2BA467509F3093ED1374BED012E
S11356209C466544002D62D0281C1F233340C218B9
S1135630403212780121944667468022394236D19D
S113564001A90A7002222C19403423781A4210D07E
S113565050462B68034034D14B7023785B070AD53E
S11356602B6942460023CB70012A09D143468B7033
S11356700AE001234B7000234246CB70012AF5D087
S11356804246022AF2D08B70301CFEF703FE02B0B1
S11356901CBC90469946A246F0BD194B9946194840
S11356A049462322FFF770FC00250020BDE75B0874
S11356B0C31830331A78D2B2314216D10F231A40AC
S11356C0BEE74A70D7E70E4B0F4C9946191C201CB5
S11356D05C22FFF759FC201C49461E22FFF754FCAC
S11356E00023FF269A462C1CD9E71209A8E705488F
S11356F003492322FFF748FC002096E700440041B9
S1135700A0F6000008F7000024F6000010B5041C01
S1135710012904D0201C0549FFF76AFC10BD044987
S1135720FFF766FC431CF9D1F4E7C04638F40000E7
S1135730B4F3000038B50D1C431C1BD00021FFF747
S1135740E5FF431C16D00F240440281C6B1C08D012
S11357500021FFF7DBFF431C03D00F231840A042B6
S113576006D0631C03D0431C02D00120404238BD44
S1135770201CFCE7281C6B1CF9D000210124FFF736
S1135780C5FF6442431CE8D1F1E7C046F0B50F1CE5
S113579085B0161C1D1C041C431C03D00021FFF7FC
S11357A0B5FF041C0094381C7B1C02D00021FFF7B9
S11357B0ADFF0190301C731C02D00021FFF7A6FF3F
S11357C00290281C6B1C02D00021FFF79FFF03905E
S11357D00120002340420F22611C04D0411C0BD045
S11357E0144084420FD10433102B0AD06946CC589C
S11357F0611CF8D0411CF3D1201C04331040102B41
S1135800F4D105B0F0BD01204042FAE7F8B5431CDD
S113581004D00F2631400D1E052D02D9012040422F
S1135820F8BD0A4F041C391CFFF7EEFB3040A842B8
S113583007D0074F201C391CFFF7E6FB0640AE4299
S1135840ECD1201C391CFFF7F7FBE9E738F4000022
S1135850B4F3000070B5431C04D00F2421400D1E86
S1135860052D02D90120404270BD0949061CFFF7ED
S1135870CBFB231C0340AB4207D0301C0549FFF788
S1135880C3FB231C0340AB42ECD100092040EBE7EF
S113589038F40000B4F3000070B586B06A46084BD3
S11358A0684670CB70C270CB70C20F2319400529B3
S11358B003D90120404206B070BD89000858FAE7B8
S11358C010F70000032208B5024B1B689A7300F01E
S11358D083FC08BDA047002030B50125354B364C6C
S11358E01D6023788FB0002B5CD00023002201AC14
S11358F022746361A36122772362636200202370B0
S1135900A370A380A27123816270A272E2722273D7
S1135910A273627323856385A385FEF74BFD274934
S113592000F0B0FE002832D00023012807D0400840
S11359300133012822D00B2BF9D1E023DB00A38013
S11359400823A370073B637000231D4DA3621D4908
S1135950013B221C281CE36200F0D2FC1A490222FB
S1135960281C00F051FC7F212A68D37B8B43FCD197
S1135970118802330B4313800FB030BD082BDCD8E1
S1135980062B13D8042B08D9A023DB00D7E70F4834
S11359900F495722FFF7F8FA0023E0221B02D20036
S11359A01340CCE7FEF7B6FD25709EE7C023DB006D
S11359B0C5E7C046FC460020B045002040420F0029
S11359C0A047002000300042C558000028F700001E
S11359D03CF7000008B5034B1B68002B01D1FFF70F
S11359E07BFF08BDFC46002008B5054B1B68002B57
S11359F001D1FFF771FF034800F0D4FD08BDC04694
S1135A00FC460020A0470020F8B5061CFFF7ECFF79
S1135A10301A21D480278023114D3F03EF501149C0
S1135A201320FEF731F9104C206800F049FC1F22C6
S1135A300E4B00211B5C201C13401E3A9A4010237D
S1135A402A60627E13436376102322685373321CE8
S1135A5000F0BEFD2F60F8BD00F0BEFBFBE7C046C2
S1135A6000E100E0A9620000A0470020ACF70000BC
S1135A701021064B1A6811735A7E8A4380215A7684
S1135A808023034A0903D1507047C046A047002031
S1135A9000E100E01022054B80211B6809039A7382
S1135AA01A73C023024A5B00D1507047A0470020FC
S1135AB000E100E0F8B5041E3ED02068FFF7E4FBE7
S1135AC02379071C012B2AD0012500230520E31884
S1135AD01856431C0FD0391CFFF7BCFE431C0AD0D8
S1135AE0C0260005B6030640052065192856431C48
S1135AF007D1301CF8BD0520651928560026431C23
S1135B00F7D0391CFFF7A6FE431CF2D0002809D0B9
S1135B10C023013800049B0218400643E9E700252E
S1135B200123D3E70720391C2056FFF793FE0328EF
S1135B3008D000200643DCE704480549B122FFF7FA
S1135B4023FABAE7C02080020643D2E730EF000010
S1135B50B0F70000F0B544465F464D465646F0B4F3
S1135B6085B098460EAB1B78041C5BB20D1C9346A3
S1135B700093002800D1C8E04346013300D1B8E0C7
S1135B8000236A4E02AA53803378002B32D0594640
S1135B904246009B281CFFF7F9FD81460120494637
S1135BA04042FFF779FE2060002C00D1A7E0604F4F
S1135BB0604E03E02268538BDB0B0AD0002CF9D132
S1135BC04422381C311CFFF7DFF92268538BDB0BAE
S1135BD0F4D1022113688B43136023681E680123E8
S1135BE09A461E400BD005B03CBC90469946A2464E
S1135BF0AB46F0BDFEF78EFC01233370C7E74B467E
S1135C00504602339840031C4B490A6A13430B6203
S1135C1002AB1E704B461433DBB21F1C181C02A9C6
S1135C200193FEF741FC381CFEF700FC0021002024
S1135C30FFF70AFB0C23226803AF11680B431360C0
S1135C405346237180233B705346BB705B46A3715C
S1135C504346E3716B461B786571237209239846AA
S1135C606DB27E70FE70A044A61D6B1C0BD0281C68
S1135C704946FFF7CBFDC0B23870FF2803D0E8B225
S1135C80391CFEF707FB464506D0357801366DB260
S1135C906B1CECD14645F8D10198FEF725FC02AB0C
S1135CA0011C9A1C2548FFF7F3F900289BD102AB8D
S1135CB09B782268201C1373FFF7FCFE8021226866
S1135CC08902136818431060226853680B435360B9
S1135CD0002C25D0164E174D03E02268538BDB0BA6
S1135CE019D0002CF9D1301C291C4422FFF74CF99F
